{
  "contractName": "Asset",
  "abi": [
    {
      "anonymous": false,
      "inputs": [
        {
          "indexed": false,
          "name": "time",
          "type": "uint256"
        },
        {
          "indexed": false,
          "name": "id",
          "type": "bytes32"
        },
        {
          "indexed": false,
          "name": "name",
          "type": "string"
        },
        {
          "indexed": false,
          "name": "desc",
          "type": "string"
        },
        {
          "indexed": false,
          "name": "owner",
          "type": "address"
        },
        {
          "indexed": false,
          "name": "depositoryAddress",
          "type": "address"
        }
      ],
      "name": "AssetCreated",
      "type": "event"
    },
    {
      "anonymous": false,
      "inputs": [
        {
          "indexed": false,
          "name": "time",
          "type": "uint256"
        },
        {
          "indexed": false,
          "name": "assetId",
          "type": "bytes32"
        },
        {
          "indexed": false,
          "name": "owner",
          "type": "address"
        }
      ],
      "name": "OwnerUpdated",
      "type": "event"
    },
    {
      "constant": false,
      "inputs": [
        {
          "name": "_name",
          "type": "string"
        },
        {
          "name": "_desc",
          "type": "string"
        },
        {
          "name": "_owner",
          "type": "address"
        },
        {
          "name": "_depositoryAddress",
          "type": "address"
        }
      ],
      "name": "createAsset",
      "outputs": [],
      "payable": true,
      "stateMutability": "payable",
      "type": "function"
    },
    {
      "constant": true,
      "inputs": [
        {
          "name": "assetId",
          "type": "bytes32"
        }
      ],
      "name": "getAssetById",
      "outputs": [
        {
          "name": "",
          "type": "bytes32"
        },
        {
          "name": "",
          "type": "string"
        },
        {
          "name": "",
          "type": "string"
        },
        {
          "name": "",
          "type": "address"
        },
        {
          "name": "",
          "type": "address"
        }
      ],
      "payable": false,
      "stateMutability": "view",
      "type": "function"
    },
    {
      "constant": false,
      "inputs": [
        {
          "name": "assetId",
          "type": "bytes32"
        },
        {
          "name": "_owner",
          "type": "address"
        }
      ],
      "name": "updateOwner",
      "outputs": [],
      "payable": false,
      "stateMutability": "nonpayable",
      "type": "function"
    },
    {
      "constant": true,
      "inputs": [
        {
          "name": "assetId",
          "type": "bytes32"
        },
        {
          "name": "_depositorySignature",
          "type": "string"
        }
      ],
      "name": "signAsset",
      "outputs": [],
      "payable": false,
      "stateMutability": "view",
      "type": "function"
    },
    {
      "constant": true,
      "inputs": [
        {
          "name": "assetId",
          "type": "bytes32"
        }
      ],
      "name": "getOwnerFromAssetId",
      "outputs": [
        {
          "name": "",
          "type": "address"
        }
      ],
      "payable": false,
      "stateMutability": "view",
      "type": "function"
    }
  ],
  "bytecode": "0x608060405234801561001057600080fd5b506115d7806100206000396000f30060806040526004361061006d576000357c0100000000000000000000000000000000000000000000000000000000900463ffffffff16806321cc0a551461007257806341832567146100e35780637f08dc1f1461026e5780639711a543146102e5578063f9c8680b14610336575b600080fd5b34801561007e57600080fd5b506100a16004803603810190808035600019169060200190929190505050610418565b604051808273ffffffffffffffffffffffffffffffffffffffff1673ffffffffffffffffffffffffffffffffffffffff16815260200191505060405180910390f35b3480156100ef57600080fd5b5061011260048036038101908080356000191690602001909291905050506106fb565b60405180866000191660001916815260200180602001806020018573ffffffffffffffffffffffffffffffffffffffff1673ffffffffffffffffffffffffffffffffffffffff1681526020018473ffffffffffffffffffffffffffffffffffffffff1673ffffffffffffffffffffffffffffffffffffffff168152602001838103835287818151815260200191508051906020019080838360005b838110156101c85780820151818401526020810190506101ad565b50505050905090810190601f1680156101f55780820380516001836020036101000a031916815260200191505b50838103825286818151815260200191508051906020019080838360005b8381101561022e578082015181840152602081019050610213565b50505050905090810190601f16801561025b5780820380516001836020036101000a031916815260200191505b5097505050505050505060405180910390f35b34801561027a57600080fd5b506102e36004803603810190808035600019169060200190929190803590602001908201803590602001908080601f0160208091040260200160405190810160405280939291908181526020018383808284378201915050505050509192919290505050610a0a565b005b3480156102f157600080fd5b506103346004803603810190808035600019169060200190929190803573ffffffffffffffffffffffffffffffffffffffff169060200190929190505050610cec565b005b610416600480360381019080803590602001908201803590602001908080601f0160208091040260200160405190810160405280939291908181526020018383808284378201915050505050509192919290803590602001908201803590602001908080601f0160208091040260200160405190810160405280939291908181526020018383808284378201915050505050509192919290803573ffffffffffffffffffffffffffffffffffffffff169060200190929190803573ffffffffffffffffffffffffffffffffffffffff16906020019092919050505061107c565b005b60006104226114a0565b600080846000191660001916815260200190815260200160002060c06040519081016040529081600082015460001916600019168152602001600182018054600181600116156101000203166002900480601f0160208091040260200160405190810160405280929190818152602001828054600181600116156101000203166002900480156104f35780601f106104c8576101008083540402835291602001916104f3565b820191906000526020600020905b8154815290600101906020018083116104d657829003601f168201915b50505050508152602001600282018054600181600116156101000203166002900480601f0160208091040260200160405190810160405280929190818152602001828054600181600116156101000203166002900480156105955780601f1061056a57610100808354040283529160200191610595565b820191906000526020600020905b81548152906001019060200180831161057857829003601f168201915b505050505081526020016003820160009054906101000a900473ffffffffffffffffffffffffffffffffffffffff1673ffffffffffffffffffffffffffffffffffffffff1673ffffffffffffffffffffffffffffffffffffffff1681526020016004820160009054906101000a900473ffffffffffffffffffffffffffffffffffffffff1673ffffffffffffffffffffffffffffffffffffffff1673ffffffffffffffffffffffffffffffffffffffff168152602001600582018054600181600116156101000203166002900480601f0160208091040260200160405190810160405280929190818152602001828054600181600116156101000203166002900480156106e35780601f106106b8576101008083540402835291602001916106e3565b820191906000526020600020905b8154815290600101906020018083116106c657829003601f168201915b50505050508152505090508060600151915050919050565b600060608060008061070b6114a0565b600080886000191660001916815260200190815260200160002060c06040519081016040529081600082015460001916600019168152602001600182018054600181600116156101000203166002900480601f0160208091040260200160405190810160405280929190818152602001828054600181600116156101000203166002900480156107dc5780601f106107b1576101008083540402835291602001916107dc565b820191906000526020600020905b8154815290600101906020018083116107bf57829003601f168201915b50505050508152602001600282018054600181600116156101000203166002900480601f01602080910402602001604051908101604052809291908181526020018280546001816001161561010002031660029004801561087e5780601f106108535761010080835404028352916020019161087e565b820191906000526020600020905b81548152906001019060200180831161086157829003601f168201915b505050505081526020016003820160009054906101000a900473ffffffffffffffffffffffffffffffffffffffff1673ffffffffffffffffffffffffffffffffffffffff1673ffffffffffffffffffffffffffffffffffffffff1681526020016004820160009054906101000a900473ffffffffffffffffffffffffffffffffffffffff1673ffffffffffffffffffffffffffffffffffffffff1673ffffffffffffffffffffffffffffffffffffffff168152602001600582018054600181600116156101000203166002900480601f0160208091040260200160405190810160405280929190818152602001828054600181600116156101000203166002900480156109cc5780601f106109a1576101008083540402835291602001916109cc565b820191906000526020600020905b8154815290600101906020018083116109af57829003601f168201915b505050505081525050905080600001518160200151826040015183606001518460800151839350829250955095509550955095505091939590929450565b610a126114a0565b600080846000191660001916815260200190815260200160002060c06040519081016040529081600082015460001916600019168152602001600182018054600181600116156101000203166002900480601f016020809104026020016040519081016040528092919081815260200182805460018160011615610100020316600290048015610ae35780601f10610ab857610100808354040283529160200191610ae3565b820191906000526020600020905b815481529060010190602001808311610ac657829003601f168201915b50505050508152602001600282018054600181600116156101000203166002900480601f016020809104026020016040519081016040528092919081815260200182805460018160011615610100020316600290048015610b855780601f10610b5a57610100808354040283529160200191610b85565b820191906000526020600020905b815481529060010190602001808311610b6857829003601f168201915b505050505081526020016003820160009054906101000a900473ffffffffffffffffffffffffffffffffffffffff1673ffffffffffffffffffffffffffffffffffffffff1673ffffffffffffffffffffffffffffffffffffffff1681526020016004820160009054906101000a900473ffffffffffffffffffffffffffffffffffffffff1673ffffffffffffffffffffffffffffffffffffffff1673ffffffffffffffffffffffffffffffffffffffff168152602001600582018054600181600116156101000203166002900480601f016020809104026020016040519081016040528092919081815260200182805460018160011615610100020316600290048015610cd35780601f10610ca857610100808354040283529160200191610cd3565b820191906000526020600020905b815481529060010190602001808311610cb657829003601f168201915b5050505050815250509050818160a00181905250505050565b610cf46114a0565b600080846000191660001916815260200190815260200160002060c06040519081016040529081600082015460001916600019168152602001600182018054600181600116156101000203166002900480601f016020809104026020016040519081016040528092919081815260200182805460018160011615610100020316600290048015610dc55780601f10610d9a57610100808354040283529160200191610dc5565b820191906000526020600020905b815481529060010190602001808311610da857829003601f168201915b50505050508152602001600282018054600181600116156101000203166002900480601f016020809104026020016040519081016040528092919081815260200182805460018160011615610100020316600290048015610e675780601f10610e3c57610100808354040283529160200191610e67565b820191906000526020600020905b815481529060010190602001808311610e4a57829003601f168201915b505050505081526020016003820160009054906101000a900473ffffffffffffffffffffffffffffffffffffffff1673ffffffffffffffffffffffffffffffffffffffff1673ffffffffffffffffffffffffffffffffffffffff1681526020016004820160009054906101000a900473ffffffffffffffffffffffffffffffffffffffff1673ffffffffffffffffffffffffffffffffffffffff1673ffffffffffffffffffffffffffffffffffffffff168152602001600582018054600181600116156101000203166002900480601f016020809104026020016040519081016040528092919081815260200182805460018160011615610100020316600290048015610fb55780601f10610f8a57610100808354040283529160200191610fb5565b820191906000526020600020905b815481529060010190602001808311610f9857829003601f168201915b505050505081525050905081816060019073ffffffffffffffffffffffffffffffffffffffff16908173ffffffffffffffffffffffffffffffffffffffff16815250507fa79b0d6b40604f0aca8415a50ad982f0bf493be0dafd9fc9f279701f118e4e46428483606001516040518084815260200183600019166000191681526020018273ffffffffffffffffffffffffffffffffffffffff1673ffffffffffffffffffffffffffffffffffffffff168152602001935050505060405180910390a1505050565b6110846114a0565b600085826020018190525084826040018190525083826060019073ffffffffffffffffffffffffffffffffffffffff16908173ffffffffffffffffffffffffffffffffffffffff16815250506001600a6001430340600190048115156110e657fe5b060190506110f38161145c565b6040518082805190602001908083835b6020831015156111285780518252602082019150602081019050602083039250611103565b6001836020036101000a03801982511681845116808217855250505050505090500191505060405180910390208260000190600019169081600019168152505082826080019073ffffffffffffffffffffffffffffffffffffffff16908173ffffffffffffffffffffffffffffffffffffffff1681525050816000808460000151600019166000191681526020019081526020016000206000820151816000019060001916905560208201518160010190805190602001906111eb929190611506565b506040820151816002019080519060200190611208929190611506565b5060608201518160030160006101000a81548173ffffffffffffffffffffffffffffffffffffffff021916908373ffffffffffffffffffffffffffffffffffffffff16021790555060808201518160040160006101000a81548173ffffffffffffffffffffffffffffffffffffffff021916908373ffffffffffffffffffffffffffffffffffffffff16021790555060a08201518160050190805190602001906112b3929190611506565b509050507f49ea821aa65f456c9e7f8302706e3dc4c058673b497eb66ef025a3ae5e042d55428360000151846020015185604001518660600151876080015160405180878152602001866000191660001916815260200180602001806020018573ffffffffffffffffffffffffffffffffffffffff1673ffffffffffffffffffffffffffffffffffffffff1681526020018473ffffffffffffffffffffffffffffffffffffffff1673ffffffffffffffffffffffffffffffffffffffff168152602001838103835287818151815260200191508051906020019080838360005b838110156113ae578082015181840152602081019050611393565b50505050905090810190601f1680156113db5780820380516001836020036101000a031916815260200191505b50838103825286818151815260200191508051906020019080838360005b838110156114145780820151818401526020810190506113f9565b50505050905090810190601f1680156114415780820380516001836020036101000a031916815260200191505b509850505050505050505060405180910390a1505050505050565b606060206040519080825280601f01601f1916602001820160405280156114925781602001602082028038833980820191505090505b509050816020820152919050565b60c060405190810160405280600080191681526020016060815260200160608152602001600073ffffffffffffffffffffffffffffffffffffffff168152602001600073ffffffffffffffffffffffffffffffffffffffff168152602001606081525090565b828054600181600116156101000203166002900490600052602060002090601f016020900481019282601f1061154757805160ff1916838001178555611575565b82800160010185558215611575579182015b82811115611574578251825591602001919060010190611559565b5b5090506115829190611586565b5090565b6115a891905b808211156115a457600081600090555060010161158c565b5090565b905600a165627a7a723058201f4167fdef4ed75389682757f3b3969bd4f7d15410cd8a01d00cc132e8bc37220029",
  "source": "pragma solidity ^0.4.0;\r\n\r\ncontract Asset {\r\n    \r\n    struct AssetObject {\r\n        bytes32 id;\r\n        string name;\r\n        string desc;\r\n        address owner;\r\n        address depositoryAddress;\r\n        string depositorySignature;\r\n    }\r\n    mapping (bytes32 => AssetObject) assetList;\r\n    \r\n    \r\n    event AssetCreated(uint256 time, bytes32 id, string name, string desc, address owner, address depositoryAddress);\r\n    event OwnerUpdated(uint256 time, bytes32 assetId, address owner);\r\n    \r\n    function createAsset(string _name, string _desc, address _owner, address _depositoryAddress) public payable {\r\n        AssetObject memory asset;\r\n        asset.name = _name;\r\n        asset.desc = _desc;\r\n        asset.owner = _owner;\r\n        uint random_number = uint(blockhash(block.number-1))%10 + 1;\r\n        asset.id = keccak256(uintToByte32(random_number));\r\n        asset.depositoryAddress = _depositoryAddress;\r\n        assetList[asset.id] = asset;\r\n        emit AssetCreated(now, asset.id, asset.name, asset.desc, asset.owner, asset.depositoryAddress);\r\n    }\r\n    \r\n    function uintToByte32(uint256 x) internal pure returns (bytes b) {\r\n        b = new bytes(32);\r\n        assembly { mstore(add(b, 32), x) }\r\n    }\r\n    \r\n    function getAssetById(bytes32 assetId) public view returns(bytes32, string, string, address, address) {\r\n        AssetObject memory asset;\r\n        asset = assetList[assetId]; \r\n        return (asset.id, asset.name, asset.desc, asset.owner, asset.depositoryAddress);\r\n    }\r\n    \r\n    function updateOwner(bytes32 assetId, address _owner) public {\r\n        AssetObject memory asset;\r\n        asset = assetList[assetId];\r\n        asset.owner = _owner;\r\n        emit OwnerUpdated(now, assetId, asset.owner);\r\n        \r\n    }\r\n    \r\n    function signAsset(bytes32 assetId, string _depositorySignature) public view {\r\n        AssetObject memory asset;\r\n        asset = assetList[assetId]; \r\n        asset.depositorySignature = _depositorySignature;\r\n    }\r\n    \r\n    function getOwnerFromAssetId(bytes32 assetId) public view returns(address) {\r\n        AssetObject memory asset;\r\n        asset = assetList[assetId]; \r\n        return asset.owner;\r\n    }\r\n}\r\n",
  "sourcePath": "C:\\Users\\Swathi\\Work\\git\\OwnershipTransfer\\contracts\\Asset.sol",
  "compiler": {
    "name": "solc",
    "version": "0.4.24+commit.e67f0147.Emscripten.clang"
  },
  "schemaVersion": "2.0.1",
  "updatedAt": "2018-09-16T16:40:09.358Z"
}