{
  "contractName": "Asset",
  "abi": [
    {
      "anonymous": false,
      "inputs": [
        {
          "indexed": false,
          "name": "time",
          "type": "uint256"
        },
        {
          "indexed": false,
          "name": "id",
          "type": "bytes32"
        },
        {
          "indexed": false,
          "name": "name",
          "type": "string"
        },
        {
          "indexed": false,
          "name": "desc",
          "type": "string"
        },
        {
          "indexed": false,
          "name": "depositoryAddress",
          "type": "address"
        }
      ],
      "name": "AssetCreated",
      "type": "event"
    },
    {
      "anonymous": false,
      "inputs": [
        {
          "indexed": false,
          "name": "time",
          "type": "uint256"
        },
        {
          "indexed": false,
          "name": "assetId",
          "type": "bytes32"
        },
        {
          "indexed": false,
          "name": "ownershipId",
          "type": "bytes32"
        }
      ],
      "name": "OwnershipUpdated",
      "type": "event"
    },
    {
      "constant": false,
      "inputs": [
        {
          "name": "_name",
          "type": "string"
        },
        {
          "name": "_desc",
          "type": "string"
        },
        {
          "name": "_depositoryAddress",
          "type": "address"
        }
      ],
      "name": "createAsset",
      "outputs": [],
      "payable": true,
      "stateMutability": "payable",
      "type": "function"
    },
    {
      "constant": true,
      "inputs": [
        {
          "name": "assetId",
          "type": "bytes32"
        }
      ],
      "name": "getAssetById",
      "outputs": [
        {
          "name": "",
          "type": "bytes32"
        },
        {
          "name": "",
          "type": "string"
        },
        {
          "name": "",
          "type": "string"
        },
        {
          "name": "",
          "type": "bytes32"
        },
        {
          "name": "",
          "type": "address"
        }
      ],
      "payable": false,
      "stateMutability": "view",
      "type": "function"
    },
    {
      "constant": false,
      "inputs": [
        {
          "name": "assetId",
          "type": "bytes32"
        },
        {
          "name": "_ownershipId",
          "type": "bytes32"
        }
      ],
      "name": "updateOwnershipId",
      "outputs": [],
      "payable": false,
      "stateMutability": "nonpayable",
      "type": "function"
    },
    {
      "constant": true,
      "inputs": [
        {
          "name": "assetId",
          "type": "bytes32"
        },
        {
          "name": "_depositorySignature",
          "type": "string"
        }
      ],
      "name": "signAsset",
      "outputs": [],
      "payable": false,
      "stateMutability": "view",
      "type": "function"
    },
    {
      "constant": true,
      "inputs": [
        {
          "name": "assetId",
          "type": "bytes32"
        }
      ],
      "name": "getOwnershipIdFromAssetId",
      "outputs": [
        {
          "name": "",
          "type": "bytes32"
        }
      ],
      "payable": false,
      "stateMutability": "view",
      "type": "function"
    }
  ],
  "bytecode": "0x608060405234801561001057600080fd5b5061134a806100206000396000f30060806040526004361061006d576000357c0100000000000000000000000000000000000000000000000000000000900463ffffffff1680631c90cc351461007257806341832567146100bf578063443efe7b146102265780637f08dc1f14610265578063ea83972e146102dc575b600080fd5b34801561007e57600080fd5b506100a1600480360381019080803560001916906020019092919050505061039e565b60405180826000191660001916815260200191505060405180910390f35b3480156100cb57600080fd5b506100ee600480360381019080803560001916906020019092919050505061063d565b604051808660001916600019168152602001806020018060200185600019166000191681526020018473ffffffffffffffffffffffffffffffffffffffff1673ffffffffffffffffffffffffffffffffffffffff168152602001838103835287818151815260200191508051906020019080838360005b83811015610180578082015181840152602081019050610165565b50505050905090810190601f1680156101ad5780820380516001836020036101000a031916815260200191505b50838103825286818151815260200191508051906020019080838360005b838110156101e65780820151818401526020810190506101cb565b50505050905090810190601f1680156102135780820380516001836020036101000a031916815260200191505b5097505050505050505060405180910390f35b34801561023257600080fd5b5061026360048036038101908080356000191690602001909291908035600019169060200190929190505050610908565b005b34801561027157600080fd5b506102da6004803603810190808035600019169060200190929190803590602001908201803590602001908080601f0160208091040260200160405190810160405280939291908181526020018383808284378201915050505050509192919290505050610c0c565b005b61039c600480360381019080803590602001908201803590602001908080601f0160208091040260200160405190810160405280939291908181526020018383808284378201915050505050509192919290803590602001908201803590602001908080601f0160208091040260200160405190810160405280939291908181526020018383808284378201915050505050509192919290803573ffffffffffffffffffffffffffffffffffffffff169060200190929190505050610eaa565b005b60006103a8611226565b600080846000191660001916815260200190815260200160002060c06040519081016040529081600082015460001916600019168152602001600182018054600181600116156101000203166002900480601f0160208091040260200160405190810160405280929190818152602001828054600181600116156101000203166002900480156104795780601f1061044e57610100808354040283529160200191610479565b820191906000526020600020905b81548152906001019060200180831161045c57829003601f168201915b50505050508152602001600282018054600181600116156101000203166002900480601f01602080910402602001604051908101604052809291908181526020018280546001816001161561010002031660029004801561051b5780601f106104f05761010080835404028352916020019161051b565b820191906000526020600020905b8154815290600101906020018083116104fe57829003601f168201915b505050505081526020016003820154600019166000191681526020016004820160009054906101000a900473ffffffffffffffffffffffffffffffffffffffff1673ffffffffffffffffffffffffffffffffffffffff1673ffffffffffffffffffffffffffffffffffffffff168152602001600582018054600181600116156101000203166002900480601f0160208091040260200160405190810160405280929190818152602001828054600181600116156101000203166002900480156106255780601f106105fa57610100808354040283529160200191610625565b820191906000526020600020905b81548152906001019060200180831161060857829003601f168201915b50505050508152505090508060600151915050919050565b600060608060008061064d611226565b600080886000191660001916815260200190815260200160002060c06040519081016040529081600082015460001916600019168152602001600182018054600181600116156101000203166002900480601f01602080910402602001604051908101604052809291908181526020018280546001816001161561010002031660029004801561071e5780601f106106f35761010080835404028352916020019161071e565b820191906000526020600020905b81548152906001019060200180831161070157829003601f168201915b50505050508152602001600282018054600181600116156101000203166002900480601f0160208091040260200160405190810160405280929190818152602001828054600181600116156101000203166002900480156107c05780601f10610795576101008083540402835291602001916107c0565b820191906000526020600020905b8154815290600101906020018083116107a357829003601f168201915b505050505081526020016003820154600019166000191681526020016004820160009054906101000a900473ffffffffffffffffffffffffffffffffffffffff1673ffffffffffffffffffffffffffffffffffffffff1673ffffffffffffffffffffffffffffffffffffffff168152602001600582018054600181600116156101000203166002900480601f0160208091040260200160405190810160405280929190818152602001828054600181600116156101000203166002900480156108ca5780601f1061089f576101008083540402835291602001916108ca565b820191906000526020600020905b8154815290600101906020018083116108ad57829003601f168201915b505050505081525050905080600001518160200151826040015183606001518460800151839350829250955095509550955095505091939590929450565b610910611226565b600080846000191660001916815260200190815260200160002060c06040519081016040529081600082015460001916600019168152602001600182018054600181600116156101000203166002900480601f0160208091040260200160405190810160405280929190818152602001828054600181600116156101000203166002900480156109e15780601f106109b6576101008083540402835291602001916109e1565b820191906000526020600020905b8154815290600101906020018083116109c457829003601f168201915b50505050508152602001600282018054600181600116156101000203166002900480601f016020809104026020016040519081016040528092919081815260200182805460018160011615610100020316600290048015610a835780601f10610a5857610100808354040283529160200191610a83565b820191906000526020600020905b815481529060010190602001808311610a6657829003601f168201915b505050505081526020016003820154600019166000191681526020016004820160009054906101000a900473ffffffffffffffffffffffffffffffffffffffff1673ffffffffffffffffffffffffffffffffffffffff1673ffffffffffffffffffffffffffffffffffffffff168152602001600582018054600181600116156101000203166002900480601f016020809104026020016040519081016040528092919081815260200182805460018160011615610100020316600290048015610b8d5780601f10610b6257610100808354040283529160200191610b8d565b820191906000526020600020905b815481529060010190602001808311610b7057829003601f168201915b505050505081525050905081816060019060001916908160001916815250507fd2486c8c97c81fabdf9d4a609a673cec23e90cc5d12ef706a85462dfb6c4d4f5428483606001516040518084815260200183600019166000191681526020018260001916600019168152602001935050505060405180910390a1505050565b610c14611226565b600080846000191660001916815260200190815260200160002060c06040519081016040529081600082015460001916600019168152602001600182018054600181600116156101000203166002900480601f016020809104026020016040519081016040528092919081815260200182805460018160011615610100020316600290048015610ce55780601f10610cba57610100808354040283529160200191610ce5565b820191906000526020600020905b815481529060010190602001808311610cc857829003601f168201915b50505050508152602001600282018054600181600116156101000203166002900480601f016020809104026020016040519081016040528092919081815260200182805460018160011615610100020316600290048015610d875780601f10610d5c57610100808354040283529160200191610d87565b820191906000526020600020905b815481529060010190602001808311610d6a57829003601f168201915b505050505081526020016003820154600019166000191681526020016004820160009054906101000a900473ffffffffffffffffffffffffffffffffffffffff1673ffffffffffffffffffffffffffffffffffffffff1673ffffffffffffffffffffffffffffffffffffffff168152602001600582018054600181600116156101000203166002900480601f016020809104026020016040519081016040528092919081815260200182805460018160011615610100020316600290048015610e915780601f10610e6657610100808354040283529160200191610e91565b820191906000526020600020905b815481529060010190602001808311610e7457829003601f168201915b5050505050815250509050818160a00181905250505050565b610eb2611226565b60008482602001819052508382604001819052506001600a600143034060019004811515610edc57fe5b06019050610ee9816111e2565b6040518082805190602001908083835b602083101515610f1e5780518252602082019150602081019050602083039250610ef9565b6001836020036101000a03801982511681845116808217855250505050505090500191505060405180910390208260000190600019169081600019168152505082826080019073ffffffffffffffffffffffffffffffffffffffff16908173ffffffffffffffffffffffffffffffffffffffff168152505081600080846000015160001916600019168152602001908152602001600020600082015181600001906000191690556020820151816001019080519060200190610fe1929190611279565b506040820151816002019080519060200190610ffe929190611279565b506060820151816003019060001916905560808201518160040160006101000a81548173ffffffffffffffffffffffffffffffffffffffff021916908373ffffffffffffffffffffffffffffffffffffffff16021790555060a0820151816005019080519060200190611072929190611279565b509050507ff6426a9d0abbd387dd76cbd9697d1599782c63c8313c622e854d98409537a95242836000015184602001518560400151866080015160405180868152602001856000191660001916815260200180602001806020018473ffffffffffffffffffffffffffffffffffffffff1673ffffffffffffffffffffffffffffffffffffffff168152602001838103835286818151815260200191508051906020019080838360005b8381101561113657808201518184015260208101905061111b565b50505050905090810190601f1680156111635780820380516001836020036101000a031916815260200191505b50838103825285818151815260200191508051906020019080838360005b8381101561119c578082015181840152602081019050611181565b50505050905090810190601f1680156111c95780820380516001836020036101000a031916815260200191505b5097505050505050505060405180910390a15050505050565b606060206040519080825280601f01601f1916602001820160405280156112185781602001602082028038833980820191505090505b509050816020820152919050565b60c06040519081016040528060008019168152602001606081526020016060815260200160008019168152602001600073ffffffffffffffffffffffffffffffffffffffff168152602001606081525090565b828054600181600116156101000203166002900490600052602060002090601f016020900481019282601f106112ba57805160ff19168380011785556112e8565b828001600101855582156112e8579182015b828111156112e75782518255916020019190600101906112cc565b5b5090506112f591906112f9565b5090565b61131b91905b808211156113175760008160009055506001016112ff565b5090565b905600a165627a7a72305820654defff7c548bce982345e1dd129f6fdd73d5c99e0d4f4ef5a5cb528756b4350029",
  "source": "pragma solidity ^0.4.0;\r\n\r\ncontract Asset {\r\n    \r\n    struct AssetObject {\r\n        bytes32 id;\r\n        string name;\r\n        string desc;\r\n        bytes32 ownershipId;\r\n        address depositoryAddress;\r\n        string depositorySignature;\r\n    }\r\n    mapping (bytes32 => AssetObject) assetList;\r\n    \r\n    \r\n    event AssetCreated(uint256 time, bytes32 id, string name, string desc, address depositoryAddress);\r\n    event OwnershipUpdated(uint256 time, bytes32 assetId, bytes32 ownershipId);\r\n    \r\n    function createAsset(string _name, string _desc, address _depositoryAddress) public payable {\r\n        AssetObject memory asset;\r\n        asset.name = _name;\r\n        asset.desc = _desc;\r\n        uint random_number = uint(blockhash(block.number-1))%10 + 1;\r\n        asset.id = keccak256(uintToByte32(random_number));\r\n        asset.depositoryAddress = _depositoryAddress;\r\n        assetList[asset.id] = asset;\r\n        emit AssetCreated(now, asset.id, asset.name, asset.desc, asset.depositoryAddress);\r\n    }\r\n    \r\n    function uintToByte32(uint256 x) internal pure returns (bytes b) {\r\n        b = new bytes(32);\r\n        assembly { mstore(add(b, 32), x) }\r\n    }\r\n    \r\n    function getAssetById(bytes32 assetId) public view returns(bytes32, string, string, bytes32, address) {\r\n        AssetObject memory asset;\r\n        asset = assetList[assetId]; \r\n        return (asset.id, asset.name, asset.desc, asset.ownershipId, asset.depositoryAddress);\r\n    }\r\n    \r\n    function updateOwnershipId(bytes32 assetId, bytes32 _ownershipId) public {\r\n        AssetObject memory asset;\r\n        asset = assetList[assetId];\r\n        asset.ownershipId = _ownershipId;\r\n        emit OwnershipUpdated(now, assetId, asset.ownershipId);\r\n        \r\n    }\r\n    \r\n    function signAsset(bytes32 assetId, string _depositorySignature) public view {\r\n        AssetObject memory asset;\r\n        asset = assetList[assetId]; \r\n        asset.depositorySignature = _depositorySignature;\r\n    }\r\n    \r\n    function getOwnershipIdFromAssetId(bytes32 assetId) public view returns(bytes32) {\r\n        AssetObject memory asset;\r\n        asset = assetList[assetId]; \r\n        return asset.ownershipId;\r\n    }\r\n}",
  "sourcePath": "C:\\Users\\Swathi\\Work\\git\\OwnershipTransfer\\contracts\\Asset.sol",
  "compiler": {
    "name": "solc",
    "version": "0.4.24+commit.e67f0147.Emscripten.clang"
  },
  "schemaVersion": "2.0.1",
  "updatedAt": "2018-08-16T22:05:41.060Z"
}