{
  "contractName": "Depository",
  "abi": [
    {
      "inputs": [
        {
          "name": "_name",
          "type": "string"
        }
      ],
      "payable": false,
      "stateMutability": "nonpayable",
      "type": "constructor"
    },
    {
      "anonymous": false,
      "inputs": [
        {
          "indexed": false,
          "name": "time",
          "type": "uint256"
        },
        {
          "indexed": false,
          "name": "depositoryContract",
          "type": "address"
        },
        {
          "indexed": false,
          "name": "id",
          "type": "bytes32"
        },
        {
          "indexed": false,
          "name": "name",
          "type": "string"
        },
        {
          "indexed": false,
          "name": "employee",
          "type": "address"
        }
      ],
      "name": "DepositoryContractDeployed",
      "type": "event"
    },
    {
      "anonymous": false,
      "inputs": [
        {
          "indexed": false,
          "name": "time",
          "type": "uint256"
        },
        {
          "indexed": false,
          "name": "id",
          "type": "bytes32"
        },
        {
          "indexed": false,
          "name": "owner",
          "type": "address"
        },
        {
          "indexed": false,
          "name": "previousOwnershipId",
          "type": "bytes32"
        },
        {
          "indexed": false,
          "name": "assetId",
          "type": "bytes32"
        },
        {
          "indexed": false,
          "name": "depository",
          "type": "address"
        },
        {
          "indexed": false,
          "name": "depositoryAddress",
          "type": "address"
        }
      ],
      "name": "OwnershipCreated",
      "type": "event"
    },
    {
      "constant": true,
      "inputs": [],
      "name": "getEmployee",
      "outputs": [
        {
          "name": "",
          "type": "address"
        }
      ],
      "payable": false,
      "stateMutability": "view",
      "type": "function"
    },
    {
      "constant": false,
      "inputs": [
        {
          "name": "_owner",
          "type": "address"
        },
        {
          "name": "_assetId",
          "type": "bytes32"
        },
        {
          "name": "assetAddress",
          "type": "address"
        }
      ],
      "name": "createFirstOwnership",
      "outputs": [],
      "payable": false,
      "stateMutability": "nonpayable",
      "type": "function"
    },
    {
      "constant": false,
      "inputs": [
        {
          "name": "_owner",
          "type": "address"
        },
        {
          "name": "_previousOwnershipId",
          "type": "bytes32"
        },
        {
          "name": "_assetId",
          "type": "bytes32"
        },
        {
          "name": "assetAddress",
          "type": "address"
        }
      ],
      "name": "createOwnership",
      "outputs": [],
      "payable": false,
      "stateMutability": "nonpayable",
      "type": "function"
    },
    {
      "constant": true,
      "inputs": [
        {
          "name": "ownership_id",
          "type": "bytes32"
        }
      ],
      "name": "getOwnerById",
      "outputs": [
        {
          "name": "",
          "type": "address"
        }
      ],
      "payable": false,
      "stateMutability": "view",
      "type": "function"
    },
    {
      "constant": true,
      "inputs": [
        {
          "name": "ownership_id",
          "type": "bytes32"
        }
      ],
      "name": "getOwnershipById",
      "outputs": [
        {
          "name": "",
          "type": "bytes32"
        },
        {
          "name": "",
          "type": "address"
        },
        {
          "name": "",
          "type": "bytes32"
        },
        {
          "name": "",
          "type": "bytes32"
        },
        {
          "name": "",
          "type": "address"
        }
      ],
      "payable": false,
      "stateMutability": "view",
      "type": "function"
    }
  ],
  "bytecode": "0x60806040523480156200001157600080fd5b50604051620011b8380380620011b88339810180604052810190808051820192919050505060006001600a6001430340600190048115156200004f57fe5b0601905033600260006101000a81548173ffffffffffffffffffffffffffffffffffffffff021916908373ffffffffffffffffffffffffffffffffffffffff1602179055508160019080519060200190620000ac929190620002e4565b50620000c7816200029f640100000000026401000000009004565b6040518082805190602001908083835b602083101515620000fe5780518252602082019150602081019050602083039250620000d7565b6001836020036101000a0380198251168184511680821785525050505050509050019150506040518091039020600081600019169055507fcd6521f439f5a3193ab8eb3857377b24cc47c4d8197337dbacc6d6c379c66ed742306000546001600260009054906101000a900473ffffffffffffffffffffffffffffffffffffffff16604051808681526020018573ffffffffffffffffffffffffffffffffffffffff1673ffffffffffffffffffffffffffffffffffffffff1681526020018460001916600019168152602001806020018373ffffffffffffffffffffffffffffffffffffffff1673ffffffffffffffffffffffffffffffffffffffff168152602001828103825284818154600181600116156101000203166002900481526020019150805460018160011615610100020316600290048015620002855780601f10620002595761010080835404028352916020019162000285565b820191906000526020600020905b8154815290600101906020018083116200026757829003601f168201915b5050965050505050505060405180910390a1505062000393565b606060206040519080825280601f01601f191660200182016040528015620002d65781602001602082028038833980820191505090505b509050816020820152919050565b828054600181600116156101000203166002900490600052602060002090601f016020900481019282601f106200032757805160ff191683800117855562000358565b8280016001018555821562000358579182015b82811115620003575782518255916020019190600101906200033a565b5b5090506200036791906200036b565b5090565b6200039091905b808211156200038c57600081600090555060010162000372565b5090565b90565b610e1580620003a36000396000f30060806040526004361061006d576000357c0100000000000000000000000000000000000000000000000000000000900463ffffffff168063021917bb146100725780632a819f261461014357806340cf3072146101c25780634132db8f14610233578063562087291461028a575b600080fd5b34801561007e57600080fd5b506100a160048036038101908080356000191690602001909291905050506102fb565b6040518086600019166000191681526020018573ffffffffffffffffffffffffffffffffffffffff1673ffffffffffffffffffffffffffffffffffffffff168152602001846000191660001916815260200183600019166000191681526020018273ffffffffffffffffffffffffffffffffffffffff1673ffffffffffffffffffffffffffffffffffffffff1681526020019550505050505060405180910390f35b34801561014f57600080fd5b506101c0600480360381019080803573ffffffffffffffffffffffffffffffffffffffff16906020019092919080356000191690602001909291908035600019169060200190929190803573ffffffffffffffffffffffffffffffffffffffff169060200190929190505050610443565b005b3480156101ce57600080fd5b506101f1600480360381019080803560001916906020019092919050505061081a565b604051808273ffffffffffffffffffffffffffffffffffffffff1673ffffffffffffffffffffffffffffffffffffffff16815260200191505060405180910390f35b34801561023f57600080fd5b5061024861093c565b604051808273ffffffffffffffffffffffffffffffffffffffff1673ffffffffffffffffffffffffffffffffffffffff16815260200191505060405180910390f35b34801561029657600080fd5b506102f9600480360381019080803573ffffffffffffffffffffffffffffffffffffffff1690602001909291908035600019169060200190929190803573ffffffffffffffffffffffffffffffffffffffff169060200190929190505050610966565b005b600080600080600061030b610d84565b60036000886000191660001916815260200190815260200160002060a060405190810160405290816000820154600019166000191681526020016001820160009054906101000a900473ffffffffffffffffffffffffffffffffffffffff1673ffffffffffffffffffffffffffffffffffffffff1673ffffffffffffffffffffffffffffffffffffffff1681526020016002820154600019166000191681526020016003820154600019166000191681526020016004820160009054906101000a900473ffffffffffffffffffffffffffffffffffffffff1673ffffffffffffffffffffffffffffffffffffffff1673ffffffffffffffffffffffffffffffffffffffff1681525050905080600001518160200151826040015183606001518460800151955095509550955095505091939590929450565b61044b610d84565b6000600260009054906101000a900473ffffffffffffffffffffffffffffffffffffffff1673ffffffffffffffffffffffffffffffffffffffff163373ffffffffffffffffffffffffffffffffffffffff161415156104a957600080fd5b82600460006101000a81548173ffffffffffffffffffffffffffffffffffffffff021916908373ffffffffffffffffffffffffffffffffffffffff16021790555085826020019073ffffffffffffffffffffffffffffffffffffffff16908173ffffffffffffffffffffffffffffffffffffffff16815250508482604001906000191690816000191681525050838260600190600019169081600019168152505033826080019073ffffffffffffffffffffffffffffffffffffffff16908173ffffffffffffffffffffffffffffffffffffffff16815250506001600a60014303406001900481151561059857fe5b060190506105a581610d40565b6040518082805190602001908083835b6020831015156105da57805182526020820191506020810190506020830392506105b5565b6001836020036101000a03801982511681845116808217855250505050505090500191505060405180910390208260000190600019169081600019168152505081600360008460000151600019166000191681526020019081526020016000206000820151816000019060001916905560208201518160010160006101000a81548173ffffffffffffffffffffffffffffffffffffffff021916908373ffffffffffffffffffffffffffffffffffffffff160217905550604082015181600201906000191690556060820151816003019060001916905560808201518160040160006101000a81548173ffffffffffffffffffffffffffffffffffffffff021916908373ffffffffffffffffffffffffffffffffffffffff1602179055509050507fa935c0fcce1bb7483e8c7af6719cc4498fc6b1b2e606b20e85d68ccf8b5af0984283600001518460200151856040015186606001518760800151306040518088815260200187600019166000191681526020018673ffffffffffffffffffffffffffffffffffffffff1673ffffffffffffffffffffffffffffffffffffffff168152602001856000191660001916815260200184600019166000191681526020018373ffffffffffffffffffffffffffffffffffffffff1673ffffffffffffffffffffffffffffffffffffffff1681526020018273ffffffffffffffffffffffffffffffffffffffff1673ffffffffffffffffffffffffffffffffffffffff16815260200197505050505050505060405180910390a1505050505050565b6000610824610d84565b60036000846000191660001916815260200190815260200160002060a060405190810160405290816000820154600019166000191681526020016001820160009054906101000a900473ffffffffffffffffffffffffffffffffffffffff1673ffffffffffffffffffffffffffffffffffffffff1673ffffffffffffffffffffffffffffffffffffffff1681526020016002820154600019166000191681526020016003820154600019166000191681526020016004820160009054906101000a900473ffffffffffffffffffffffffffffffffffffffff1673ffffffffffffffffffffffffffffffffffffffff1673ffffffffffffffffffffffffffffffffffffffff168152505090508060200151915050919050565b6000600260009054906101000a900473ffffffffffffffffffffffffffffffffffffffff16905090565b61096e610d84565b6000600260009054906101000a900473ffffffffffffffffffffffffffffffffffffffff1673ffffffffffffffffffffffffffffffffffffffff163373ffffffffffffffffffffffffffffffffffffffff161415156109cc57600080fd5b82600460006101000a81548173ffffffffffffffffffffffffffffffffffffffff021916908373ffffffffffffffffffffffffffffffffffffffff16021790555084826020019073ffffffffffffffffffffffffffffffffffffffff16908173ffffffffffffffffffffffffffffffffffffffff1681525050838260600190600019169081600019168152505033826080019073ffffffffffffffffffffffffffffffffffffffff16908173ffffffffffffffffffffffffffffffffffffffff16815250506001600a600143034060019004811515610aa757fe5b06019050610ab481610d40565b6040518082805190602001908083835b602083101515610ae95780518252602082019150602081019050602083039250610ac4565b6001836020036101000a03801982511681845116808217855250505050505090500191505060405180910390208260000190600019169081600019168152505081600001518260400190600019169081600019168152505081600360008460000151600019166000191681526020019081526020016000206000820151816000019060001916905560208201518160010160006101000a81548173ffffffffffffffffffffffffffffffffffffffff021916908373ffffffffffffffffffffffffffffffffffffffff160217905550604082015181600201906000191690556060820151816003019060001916905560808201518160040160006101000a81548173ffffffffffffffffffffffffffffffffffffffff021916908373ffffffffffffffffffffffffffffffffffffffff1602179055509050507fa935c0fcce1bb7483e8c7af6719cc4498fc6b1b2e606b20e85d68ccf8b5af0984283600001518460200151856040015186606001518760800151306040518088815260200187600019166000191681526020018673ffffffffffffffffffffffffffffffffffffffff1673ffffffffffffffffffffffffffffffffffffffff168152602001856000191660001916815260200184600019166000191681526020018373ffffffffffffffffffffffffffffffffffffffff1673ffffffffffffffffffffffffffffffffffffffff1681526020018273ffffffffffffffffffffffffffffffffffffffff1673ffffffffffffffffffffffffffffffffffffffff16815260200197505050505050505060405180910390a15050505050565b606060206040519080825280601f01601f191660200182016040528015610d765781602001602082028038833980820191505090505b509050816020820152919050565b60a06040519081016040528060008019168152602001600073ffffffffffffffffffffffffffffffffffffffff1681526020016000801916815260200160008019168152602001600073ffffffffffffffffffffffffffffffffffffffff16815250905600a165627a7a72305820dc75b7b68dbd5a97a185f2c586515efc91b8ccc443e7b46c553e09b3133e0f610029",
  "source": "pragma solidity ^0.4.0;\r\nimport \"./Asset.sol\";\r\n\r\ncontract Depository {\r\n    bytes32 id;\r\n    string name;\r\n    address employee;\r\n    mapping (bytes32 => Ownership) ownershipList;\r\n    Asset assetContract;\r\n    \r\n    struct Ownership {\r\n        bytes32 id;\r\n        address owner;\r\n        bytes32 previousOwnershipId;\r\n        bytes32 assetId;\r\n        address depository;\r\n    }\r\n    \r\n    event DepositoryContractDeployed(uint256 time, address depositoryContract, bytes32 id, string name, address employee);\r\n    event OwnershipCreated(uint256 time, bytes32 id, address owner, bytes32 previousOwnershipId, bytes32 assetId, address depository, address depositoryAddress);\r\n    \r\n    constructor(string _name) public {\r\n        uint random_number = uint(blockhash(block.number-1))%10 + 1;\r\n        employee = msg.sender;\r\n        name = _name;\r\n        id = keccak256(uintToByte32(random_number));\r\n        emit DepositoryContractDeployed(now, this, id, name, employee);\r\n    }\r\n    \r\n    function getEmployee() public constant returns(address) {\r\n        return employee;\r\n    }\r\n    \r\n    function createFirstOwnership(address _owner, bytes32 _assetId, address assetAddress) public onlyDepository {\r\n        assetContract = Asset(assetAddress);\r\n        Ownership memory ownership;\r\n        ownership.owner = _owner;\r\n        ownership.assetId = _assetId;\r\n        ownership.depository = msg.sender;\r\n        uint random_number = uint(blockhash(block.number-1))%10 + 1;\r\n        ownership.id = keccak256(uintToByte32(random_number));\r\n        ownership.previousOwnershipId = ownership.id;\r\n        ownershipList[ownership.id] = ownership;\r\n        /* assetContract.updateOwnershipId(ownership.assetId, ownership.id); */\r\n        emit OwnershipCreated(now, ownership.id, ownership.owner, ownership.previousOwnershipId, ownership.assetId, ownership.depository, this);\r\n    }\r\n\r\n    function createOwnership(address _owner, bytes32 _previousOwnershipId, bytes32 _assetId, address assetAddress) public onlyDepository {\r\n        assetContract = Asset(assetAddress);\r\n        Ownership memory ownership;\r\n        ownership.owner = _owner;\r\n        ownership.previousOwnershipId = _previousOwnershipId;\r\n        ownership.assetId = _assetId;\r\n        ownership.depository = msg.sender;\r\n        uint random_number = uint(blockhash(block.number-1))%10 + 1;\r\n        ownership.id = keccak256(uintToByte32(random_number));\r\n        ownershipList[ownership.id] = ownership;\r\n        /* assetContract.updateOwnershipId(ownership.assetId, ownership.id); */ \r\n        emit OwnershipCreated(now, ownership.id, ownership.owner, ownership.previousOwnershipId, ownership.assetId, ownership.depository, this);\r\n    }\r\n    \r\n    function getOwnerById(bytes32 ownership_id) public constant returns(address) {\r\n        Ownership memory ownership;\r\n        ownership = ownershipList[ownership_id];\r\n        return ownership.owner;\r\n    }\r\n    \r\n    function getOwnershipById(bytes32 ownership_id) public view returns(bytes32, address, bytes32, bytes32, address) {\r\n        Ownership memory ownership;\r\n        ownership = ownershipList[ownership_id];\r\n        return (ownership.id, ownership.owner, ownership.previousOwnershipId, ownership.assetId, ownership.depository);\r\n    }\r\n    \r\n    function uintToByte32(uint256 x) internal pure returns (bytes b) {\r\n        b = new bytes(32);\r\n        assembly { mstore(add(b, 32), x) }\r\n    }\r\n    \r\n    modifier onlyDepository() {\r\n        require(\r\n            msg.sender == employee    \r\n        );\r\n        _;\r\n    }\r\n}",
  "sourcePath": "C:\\Users\\Swathi\\Work\\git\\OwnershipTransfer\\contracts\\Depository.sol",
  "compiler": {
    "name": "solc",
    "version": "0.4.24+commit.e67f0147.Emscripten.clang"
  },
  "schemaVersion": "2.0.1",
  "updatedAt": "2018-08-13T23:17:44.049Z"
}