{
  "contractName": "Match",
  "abi": [
    {
      "anonymous": false,
      "inputs": [
        {
          "indexed": false,
          "name": "time",
          "type": "uint256"
        },
        {
          "indexed": false,
          "name": "matchContract",
          "type": "address"
        },
        {
          "indexed": false,
          "name": "assetContract",
          "type": "address"
        },
        {
          "indexed": false,
          "name": "assetAmount",
          "type": "string"
        },
        {
          "indexed": false,
          "name": "seller",
          "type": "address"
        },
        {
          "indexed": false,
          "name": "buyer",
          "type": "address"
        },
        {
          "indexed": false,
          "name": "oldOwner",
          "type": "address"
        },
        {
          "indexed": false,
          "name": "newOwner",
          "type": "address"
        },
        {
          "indexed": false,
          "name": "sellOrderContract",
          "type": "address"
        },
        {
          "indexed": false,
          "name": "buyOrderContract",
          "type": "address"
        },
        {
          "indexed": false,
          "name": "depository",
          "type": "address"
        }
      ],
      "name": "MatchContractDeployed",
      "type": "event"
    },
    {
      "anonymous": false,
      "inputs": [
        {
          "indexed": false,
          "name": "time",
          "type": "uint256"
        },
        {
          "indexed": false,
          "name": "matchContract",
          "type": "address"
        },
        {
          "indexed": false,
          "name": "sellerSignature",
          "type": "string"
        }
      ],
      "name": "SellerSignatureUpdated",
      "type": "event"
    },
    {
      "anonymous": false,
      "inputs": [
        {
          "indexed": false,
          "name": "time",
          "type": "uint256"
        },
        {
          "indexed": false,
          "name": "matchContract",
          "type": "address"
        },
        {
          "indexed": false,
          "name": "buyerSignature",
          "type": "string"
        }
      ],
      "name": "BuyerSignatureUpdated",
      "type": "event"
    },
    {
      "anonymous": false,
      "inputs": [
        {
          "indexed": false,
          "name": "time",
          "type": "uint256"
        },
        {
          "indexed": false,
          "name": "matchContract",
          "type": "address"
        },
        {
          "indexed": false,
          "name": "depositorySignature",
          "type": "string"
        }
      ],
      "name": "DepositorySignatureUpdated",
      "type": "event"
    },
    {
      "constant": false,
      "inputs": [
        {
          "name": "_assetContract",
          "type": "address"
        },
        {
          "name": "_assetAmount",
          "type": "string"
        },
        {
          "name": "_seller",
          "type": "address"
        },
        {
          "name": "_buyer",
          "type": "address"
        },
        {
          "name": "_oldOwner",
          "type": "address"
        },
        {
          "name": "_newOwner",
          "type": "address"
        },
        {
          "name": "_sellOrderContract",
          "type": "address"
        },
        {
          "name": "_buyOrderContract",
          "type": "address"
        }
      ],
      "name": "matchCreated",
      "outputs": [],
      "payable": false,
      "stateMutability": "nonpayable",
      "type": "function"
    },
    {
      "constant": false,
      "inputs": [
        {
          "name": "_sellerSignature",
          "type": "string"
        }
      ],
      "name": "updateSellerSignature",
      "outputs": [],
      "payable": false,
      "stateMutability": "nonpayable",
      "type": "function"
    },
    {
      "constant": false,
      "inputs": [
        {
          "name": "_buyerSignature",
          "type": "string"
        }
      ],
      "name": "updateBuyerSignature",
      "outputs": [],
      "payable": false,
      "stateMutability": "nonpayable",
      "type": "function"
    },
    {
      "constant": false,
      "inputs": [
        {
          "name": "_depositorySignature",
          "type": "string"
        }
      ],
      "name": "updateDepositorySignature",
      "outputs": [],
      "payable": false,
      "stateMutability": "nonpayable",
      "type": "function"
    }
  ],
  "bytecode": "0x608060405234801561001057600080fd5b50610ef0806100206000396000f300608060405260043610610062576000357c0100000000000000000000000000000000000000000000000000000000900463ffffffff1680630c27cfd5146100675780632c0a7ee6146101b05780634202693b14610219578063729fa66d14610282575b600080fd5b34801561007357600080fd5b506101ae600480360381019080803573ffffffffffffffffffffffffffffffffffffffff169060200190929190803590602001908201803590602001908080601f0160208091040260200160405190810160405280939291908181526020018383808284378201915050505050509192919290803573ffffffffffffffffffffffffffffffffffffffff169060200190929190803573ffffffffffffffffffffffffffffffffffffffff169060200190929190803573ffffffffffffffffffffffffffffffffffffffff169060200190929190803573ffffffffffffffffffffffffffffffffffffffff169060200190929190803573ffffffffffffffffffffffffffffffffffffffff169060200190929190803573ffffffffffffffffffffffffffffffffffffffff1690602001909291905050506102eb565b005b3480156101bc57600080fd5b50610217600480360381019080803590602001908201803590602001908080601f01602080910402602001604051908101604052809392919081815260200183838082843782019150505050505091929192905050506109db565b005b34801561022557600080fd5b50610280600480360381019080803590602001908201803590602001908080601f0160208091040260200160405190810160405280939291908181526020018383808284378201915050505050509192919290505050610b47565b005b34801561028e57600080fd5b506102e9600480360381019080803590602001908201803590602001908080601f0160208091040260200160405190810160405280939291908181526020018383808284378201915050505050509192919290505050610cb3565b005b876000806101000a81548173ffffffffffffffffffffffffffffffffffffffff021916908373ffffffffffffffffffffffffffffffffffffffff1602179055508660019080519060200190610341929190610e1f565b5085600260006101000a81548173ffffffffffffffffffffffffffffffffffffffff021916908373ffffffffffffffffffffffffffffffffffffffff16021790555084600360006101000a81548173ffffffffffffffffffffffffffffffffffffffff021916908373ffffffffffffffffffffffffffffffffffffffff16021790555083600460006101000a81548173ffffffffffffffffffffffffffffffffffffffff021916908373ffffffffffffffffffffffffffffffffffffffff16021790555082600560006101000a81548173ffffffffffffffffffffffffffffffffffffffff021916908373ffffffffffffffffffffffffffffffffffffffff16021790555081600960006101000a81548173ffffffffffffffffffffffffffffffffffffffff021916908373ffffffffffffffffffffffffffffffffffffffff16021790555080600a60006101000a81548173ffffffffffffffffffffffffffffffffffffffff021916908373ffffffffffffffffffffffffffffffffffffffff160217905550600b60009054906101000a900473ffffffffffffffffffffffffffffffffffffffff16600d60006101000a81548173ffffffffffffffffffffffffffffffffffffffff021916908373ffffffffffffffffffffffffffffffffffffffff160217905550600d60009054906101000a900473ffffffffffffffffffffffffffffffffffffffff1673ffffffffffffffffffffffffffffffffffffffff16634132db8f6040518163ffffffff167c0100000000000000000000000000000000000000000000000000000000028152600401602060405180830381600087803b1580156105b157600080fd5b505af11580156105c5573d6000803e3d6000fd5b505050506040513d60208110156105db57600080fd5b8101908080519060200190929190505050600c60006101000a81548173ffffffffffffffffffffffffffffffffffffffff021916908373ffffffffffffffffffffffffffffffffffffffff1602179055507f8d0ce877c5db2b1b9b8f30fdb075ee66a7be470da8e7ba053bc419587131c88442306000809054906101000a900473ffffffffffffffffffffffffffffffffffffffff166001600260009054906101000a900473ffffffffffffffffffffffffffffffffffffffff16600360009054906101000a900473ffffffffffffffffffffffffffffffffffffffff16600460009054906101000a900473ffffffffffffffffffffffffffffffffffffffff16600560009054906101000a900473ffffffffffffffffffffffffffffffffffffffff16600960009054906101000a900473ffffffffffffffffffffffffffffffffffffffff16600a60009054906101000a900473ffffffffffffffffffffffffffffffffffffffff16600c60009054906101000a900473ffffffffffffffffffffffffffffffffffffffff16604051808c81526020018b73ffffffffffffffffffffffffffffffffffffffff1673ffffffffffffffffffffffffffffffffffffffff1681526020018a73ffffffffffffffffffffffffffffffffffffffff1673ffffffffffffffffffffffffffffffffffffffff168152602001806020018973ffffffffffffffffffffffffffffffffffffffff1673ffffffffffffffffffffffffffffffffffffffff1681526020018873ffffffffffffffffffffffffffffffffffffffff1673ffffffffffffffffffffffffffffffffffffffff1681526020018773ffffffffffffffffffffffffffffffffffffffff1673ffffffffffffffffffffffffffffffffffffffff1681526020018673ffffffffffffffffffffffffffffffffffffffff1673ffffffffffffffffffffffffffffffffffffffff1681526020018573ffffffffffffffffffffffffffffffffffffffff1673ffffffffffffffffffffffffffffffffffffffff1681526020018473ffffffffffffffffffffffffffffffffffffffff1673ffffffffffffffffffffffffffffffffffffffff1681526020018373ffffffffffffffffffffffffffffffffffffffff1673ffffffffffffffffffffffffffffffffffffffff16815260200182810382528a8181546001816001161561010002031660029004815260200191508054600181600116156101000203166002900480156109b95780601f1061098e576101008083540402835291602001916109b9565b820191906000526020600020905b81548152906001019060200180831161099c57829003601f168201915b50509c5050505050505050505050505060405180910390a15050505050505050565b600260009054906101000a900473ffffffffffffffffffffffffffffffffffffffff1673ffffffffffffffffffffffffffffffffffffffff163373ffffffffffffffffffffffffffffffffffffffff16141515610a3757600080fd5b8060089080519060200190610a4d929190610e1f565b507f3a08e4d194c7b87a8b273c0471fdd3cd39f0377172ff2a34c379e6fa7dcbd37d42306008604051808481526020018373ffffffffffffffffffffffffffffffffffffffff1673ffffffffffffffffffffffffffffffffffffffff16815260200180602001828103825283818154600181600116156101000203166002900481526020019150805460018160011615610100020316600290048015610b345780601f10610b0957610100808354040283529160200191610b34565b820191906000526020600020905b815481529060010190602001808311610b1757829003601f168201915b505094505050505060405180910390a150565b600260009054906101000a900473ffffffffffffffffffffffffffffffffffffffff1673ffffffffffffffffffffffffffffffffffffffff163373ffffffffffffffffffffffffffffffffffffffff16141515610ba357600080fd5b8060079080519060200190610bb9929190610e1f565b507f70d916d501b7026b1f7e76c8748bb7170bccdb9d7f6a7e290002f276c335692c42306007604051808481526020018373ffffffffffffffffffffffffffffffffffffffff1673ffffffffffffffffffffffffffffffffffffffff16815260200180602001828103825283818154600181600116156101000203166002900481526020019150805460018160011615610100020316600290048015610ca05780601f10610c7557610100808354040283529160200191610ca0565b820191906000526020600020905b815481529060010190602001808311610c8357829003601f168201915b505094505050505060405180910390a150565b600260009054906101000a900473ffffffffffffffffffffffffffffffffffffffff1673ffffffffffffffffffffffffffffffffffffffff163373ffffffffffffffffffffffffffffffffffffffff16141515610d0f57600080fd5b8060069080519060200190610d25929190610e1f565b507fc52bfc41a4620608743977b8904ab4099e10cb4c0aa4d209b1824d26e2facbc842306006604051808481526020018373ffffffffffffffffffffffffffffffffffffffff1673ffffffffffffffffffffffffffffffffffffffff16815260200180602001828103825283818154600181600116156101000203166002900481526020019150805460018160011615610100020316600290048015610e0c5780601f10610de157610100808354040283529160200191610e0c565b820191906000526020600020905b815481529060010190602001808311610def57829003601f168201915b505094505050505060405180910390a150565b828054600181600116156101000203166002900490600052602060002090601f016020900481019282601f10610e6057805160ff1916838001178555610e8e565b82800160010185558215610e8e579182015b82811115610e8d578251825591602001919060010190610e72565b5b509050610e9b9190610e9f565b5090565b610ec191905b80821115610ebd576000816000905550600101610ea5565b5090565b905600a165627a7a7230582076cbef2be531661859e42aa8a028135dd71dc3571edfe768a41c0e374211bc180029",
  "source": "pragma solidity ^0.4.24;\r\n\r\nimport \"./Depository.sol\";\r\n\r\ncontract Match {\r\n    address assetContract;\r\n    string assetAmount;\r\n    address seller;\r\n    address buyer;\r\n    address oldOwner;\r\n    address newOwner;\r\n    string sellerSignature;\r\n    string buyerSignature;\r\n    string depositorySignature;\r\n    address sellOrderContract;\r\n    address buyOrderContract;\r\n    address depositoryContract;\r\n    address depository;\r\n    Depository depo;\r\n    \r\n    \r\n    event MatchContractDeployed(uint256 time, address matchContract, address assetContract, string assetAmount, address seller, address buyer, address oldOwner, address newOwner,\r\n    address sellOrderContract, address buyOrderContract, address depository);\r\n    event SellerSignatureUpdated(uint256 time, address matchContract, string sellerSignature);\r\n    event BuyerSignatureUpdated(uint256 time, address matchContract, string buyerSignature);\r\n    event DepositorySignatureUpdated(uint256 time, address matchContract, string depositorySignature);\r\n    \r\n    function matchCreated(address _assetContract, string _assetAmount, address _seller, address _buyer, address _oldOwner, address _newOwner,\r\n    address _sellOrderContract, address _buyOrderContract) public {\r\n        assetContract = _assetContract;\r\n        assetAmount = _assetAmount;\r\n        seller = _seller;\r\n        buyer = _buyer;\r\n        oldOwner = _oldOwner;\r\n        newOwner = _newOwner;\r\n        sellOrderContract = _sellOrderContract;\r\n        buyOrderContract = _buyOrderContract;\r\n        depo = Depository(depositoryContract);\r\n        depository = depo.getEmployee();\r\n        emit MatchContractDeployed(now, this, assetContract, assetAmount, seller, buyer, oldOwner, newOwner, sellOrderContract, buyOrderContract, depository);\r\n    }\r\n    \r\n    function updateSellerSignature(string _sellerSignature) onlySeller public {\r\n        sellerSignature = _sellerSignature;\r\n        emit SellerSignatureUpdated(now, this, sellerSignature);\r\n    }\r\n    \r\n    function updateBuyerSignature(string _buyerSignature) onlySeller public {\r\n        buyerSignature = _buyerSignature;\r\n        emit BuyerSignatureUpdated(now, this, buyerSignature);\r\n    }\r\n    \r\n    function updateDepositorySignature(string _depositorySignature) onlySeller public {\r\n        depositorySignature = _depositorySignature;\r\n        emit DepositorySignatureUpdated(now, this, depositorySignature);\r\n    }\r\n    \r\n    modifier onlyBuyer() {\r\n        require(\r\n            (msg.sender == buyer) \r\n        );\r\n        _;\r\n    }\r\n    \r\n    modifier onlySeller() {\r\n        require(\r\n            (msg.sender == seller) \r\n        );\r\n        _;\r\n    }\r\n    \r\n    modifier onlyDepository() {\r\n        require(\r\n            (msg.sender == depository) \r\n        );\r\n        _;\r\n    }\r\n}",
  "sourcePath": "C:\\Users\\Swathi\\Work\\git\\OwnershipTransfer\\contracts\\Match.sol",
  "compiler": {
    "name": "solc",
    "version": "0.4.24+commit.e67f0147.Emscripten.clang"
  },
  "schemaVersion": "2.0.1",
  "updatedAt": "2018-08-16T22:05:41.054Z"
}