{
  "contractName": "Order",
  "abi": [
    {
      "anonymous": false,
      "inputs": [
        {
          "indexed": false,
          "name": "time",
          "type": "uint256"
        },
        {
          "indexed": false,
          "name": "orderId",
          "type": "bytes32"
        },
        {
          "indexed": false,
          "name": "assetId",
          "type": "bytes32"
        },
        {
          "indexed": false,
          "name": "ownershipId",
          "type": "bytes32"
        },
        {
          "indexed": false,
          "name": "owner",
          "type": "address"
        },
        {
          "indexed": false,
          "name": "intent",
          "type": "string"
        },
        {
          "indexed": false,
          "name": "broker",
          "type": "address"
        },
        {
          "indexed": false,
          "name": "data",
          "type": "string"
        },
        {
          "indexed": false,
          "name": "ownerSignature",
          "type": "bytes"
        }
      ],
      "name": "OrderCreated",
      "type": "event"
    },
    {
      "constant": false,
      "inputs": [
        {
          "name": "_assetId",
          "type": "bytes32"
        },
        {
          "name": "_ownershipId",
          "type": "bytes32"
        },
        {
          "name": "_owner",
          "type": "address"
        },
        {
          "name": "_intent",
          "type": "string"
        },
        {
          "name": "_broker",
          "type": "address"
        },
        {
          "name": "_data",
          "type": "string"
        },
        {
          "name": "_ownerSignature",
          "type": "bytes"
        }
      ],
      "name": "createOrder",
      "outputs": [],
      "payable": false,
      "stateMutability": "nonpayable",
      "type": "function"
    },
    {
      "constant": true,
      "inputs": [
        {
          "name": "order_id",
          "type": "bytes32"
        }
      ],
      "name": "getOrderById",
      "outputs": [
        {
          "name": "orderId",
          "type": "bytes32"
        },
        {
          "name": "assetId",
          "type": "bytes32"
        },
        {
          "name": "owner",
          "type": "address"
        },
        {
          "name": "intent",
          "type": "string"
        },
        {
          "name": "broker",
          "type": "address"
        },
        {
          "name": "issuer",
          "type": "address"
        },
        {
          "name": "ownerSignature",
          "type": "bytes"
        },
        {
          "name": "data",
          "type": "string"
        }
      ],
      "payable": false,
      "stateMutability": "view",
      "type": "function"
    }
  ],
  "bytecode": "0x608060405234801561001057600080fd5b50610c55806100206000396000f30060806040526004361061004c576000357c0100000000000000000000000000000000000000000000000000000000900463ffffffff168063a3fa3af314610051578063a6399129146101a2575b600080fd5b34801561005d57600080fd5b506101a060048036038101908080356000191690602001909291908035600019169060200190929190803573ffffffffffffffffffffffffffffffffffffffff169060200190929190803590602001908201803590602001908080601f0160208091040260200160405190810160405280939291908181526020018383808284378201915050505050509192919290803573ffffffffffffffffffffffffffffffffffffffff169060200190929190803590602001908201803590602001908080601f0160208091040260200160405190810160405280939291908181526020018383808284378201915050505050509192919290803590602001908201803590602001908080601f01602080910402602001604051908101604052809392919081815260200183838082843782019150505050505091929192905050506103db565b005b3480156101ae57600080fd5b506101d160048036038101908080356000191690602001909291905050506107ab565b60405180896000191660001916815260200188600019166000191681526020018773ffffffffffffffffffffffffffffffffffffffff1673ffffffffffffffffffffffffffffffffffffffff168152602001806020018673ffffffffffffffffffffffffffffffffffffffff1673ffffffffffffffffffffffffffffffffffffffff1681526020018573ffffffffffffffffffffffffffffffffffffffff1673ffffffffffffffffffffffffffffffffffffffff1681526020018060200180602001848103845289818151815260200191508051906020019080838360005b838110156102cb5780820151818401526020810190506102b0565b50505050905090810190601f1680156102f85780820380516001836020036101000a031916815260200191505b50848103835286818151815260200191508051906020019080838360005b83811015610331578082015181840152602081019050610316565b50505050905090810190601f16801561035e5780820380516001836020036101000a031916815260200191505b50848103825285818151815260200191508051906020019080838360005b8381101561039757808201518184015260208101905061037c565b50505050905090810190601f1680156103c45780820380516001836020036101000a031916815260200191505b509b50505050505050505050505060405180910390f35b60006103e5610b91565b6001600a6001430340600190048115156103fb57fe5b060191508881602001906000191690816000191681525050878160400190600019169081600019168152505086816060019073ffffffffffffffffffffffffffffffffffffffff16908173ffffffffffffffffffffffffffffffffffffffff1681525050858160800181905250848160a0019073ffffffffffffffffffffffffffffffffffffffff16908173ffffffffffffffffffffffffffffffffffffffff1681525050338160c0019073ffffffffffffffffffffffffffffffffffffffff16908173ffffffffffffffffffffffffffffffffffffffff1681525050828160e00181905250838161010001819052506104f482610b4d565b6040518082805190602001908083835b6020831015156105295780518252602082019150602081019050602083039250610504565b6001836020036101000a0380198251168184511680821785525050505050509050019150506040518091039020816000019060001916908160001916815250507fe8b160fe58f5300e3a086a1371473c835a170e5c5f923445a0667f7f042fb4e642826000015183602001518460400151856060015186608001518760a001518861010001518960e00151604051808a81526020018960001916600019168152602001886000191660001916815260200187600019166000191681526020018673ffffffffffffffffffffffffffffffffffffffff1673ffffffffffffffffffffffffffffffffffffffff168152602001806020018573ffffffffffffffffffffffffffffffffffffffff1673ffffffffffffffffffffffffffffffffffffffff1681526020018060200180602001848103845288818151815260200191508051906020019080838360005b83811015610690578082015181840152602081019050610675565b50505050905090810190601f1680156106bd5780820380516001836020036101000a031916815260200191505b50848103835286818151815260200191508051906020019080838360005b838110156106f65780820151818401526020810190506106db565b50505050905090810190601f1680156107235780820380516001836020036101000a031916815260200191505b50848103825285818151815260200191508051906020019080838360005b8381101561075c578082015181840152602081019050610741565b50505050905090810190601f1680156107895780820380516001836020036101000a031916815260200191505b509c5050505050505050505050505060405180910390a1505050505050505050565b600080600060606000806060806107c0610b91565b600260008b6000191660001916815260200190815260200160002061012060405190810160405290816000820154600019166000191681526020016001820154600019166000191681526020016002820154600019166000191681526020016003820160009054906101000a900473ffffffffffffffffffffffffffffffffffffffff1673ffffffffffffffffffffffffffffffffffffffff1673ffffffffffffffffffffffffffffffffffffffff168152602001600482018054600181600116156101000203166002900480601f01602080910402602001604051908101604052809291908181526020018280546001816001161561010002031660029004801561090d5780601f106108e25761010080835404028352916020019161090d565b820191906000526020600020905b8154815290600101906020018083116108f057829003601f168201915b505050505081526020016005820160009054906101000a900473ffffffffffffffffffffffffffffffffffffffff1673ffffffffffffffffffffffffffffffffffffffff1673ffffffffffffffffffffffffffffffffffffffff1681526020016006820160009054906101000a900473ffffffffffffffffffffffffffffffffffffffff1673ffffffffffffffffffffffffffffffffffffffff1673ffffffffffffffffffffffffffffffffffffffff168152602001600782018054600181600116156101000203166002900480601f016020809104026020016040519081016040528092919081815260200182805460018160011615610100020316600290048015610a5b5780601f10610a3057610100808354040283529160200191610a5b565b820191906000526020600020905b815481529060010190602001808311610a3e57829003601f168201915b50505050508152602001600882018054600181600116156101000203166002900480601f016020809104026020016040519081016040528092919081815260200182805460018160011615610100020316600290048015610afd5780601f10610ad257610100808354040283529160200191610afd565b820191906000526020600020905b815481529060010190602001808311610ae057829003601f168201915b5050505050815250509050806000015198508060200151975080606001519650806080015195508060a0015194508060c0015193508060e001519250806101000151915050919395975091939597565b606060206040519080825280601f01601f191660200182016040528015610b835781602001602082028038833980820191505090505b509050816020820152919050565b61012060405190810160405280600080191681526020016000801916815260200160008019168152602001600073ffffffffffffffffffffffffffffffffffffffff16815260200160608152602001600073ffffffffffffffffffffffffffffffffffffffff168152602001600073ffffffffffffffffffffffffffffffffffffffff168152602001606081526020016060815250905600a165627a7a7230582069209e86ccd48831b771a7c475c277cb7bf14135489019bf1cfa57cd65cb23280029",
  "source": "pragma solidity ^0.4.24;\r\n\r\nimport \"./Depository.sol\";\r\n\r\ncontract Order {\r\n    \r\n        address depositoryAddress;\r\n        Depository depositoryContract;\r\n        mapping (bytes32 => Claim) orderList;\r\n        \r\n        struct Claim {\r\n            bytes32 id;\r\n            bytes32 assetId;\r\n            bytes32 ownershipId;\r\n            address owner;\r\n            string intent;\r\n            address broker;\r\n            address issuer; // msg.sender\r\n            bytes ownerSignature; // this.address + topic + data\r\n            string data;\r\n        }\r\n        \r\n        event OrderCreated(uint256 time, bytes32 orderId, bytes32 assetId, bytes32 ownershipId, address owner, string intent, address broker, string data, bytes ownerSignature);\r\n        \r\n        function createOrder(bytes32 _assetId, bytes32 _ownershipId, address _owner, string _intent, address _broker, string _data, bytes _ownerSignature) public {\r\n            uint random_number = uint(blockhash(block.number-1))%10 + 1; \r\n            \r\n            Claim memory ownerClaim;\r\n            ownerClaim.assetId = _assetId;\r\n            ownerClaim.ownershipId = _ownershipId;\r\n            ownerClaim.owner = _owner;\r\n            ownerClaim.intent = _intent;\r\n            ownerClaim.broker = _broker;\r\n            ownerClaim.issuer = msg.sender;\r\n            ownerClaim.ownerSignature = _ownerSignature;\r\n            ownerClaim.data = _data;\r\n            ownerClaim.id = keccak256(uintToByte32(random_number));\r\n            emit OrderCreated(now, ownerClaim.id, ownerClaim.assetId, ownerClaim.ownershipId, ownerClaim.owner, ownerClaim.intent, ownerClaim.broker, ownerClaim.data, ownerClaim.ownerSignature);\r\n        }\r\n        \r\n        function getOrderById(bytes32 order_id) public view returns(bytes32 orderId, bytes32 assetId, address owner, string intent, address broker, address issuer, bytes ownerSignature, string data) {\r\n            Claim memory claim;\r\n            claim = orderList[order_id];\r\n            orderId = claim.id;\r\n            assetId = claim.assetId;\r\n            owner = claim.owner;\r\n            intent = claim.intent;\r\n            broker = claim.broker;\r\n            issuer = claim.issuer;\r\n            ownerSignature = claim.ownerSignature;\r\n            data = claim.data;\r\n        }\r\n        \r\n        \r\n        \r\n        function uintToByte32(uint256 x) internal pure returns (bytes b) {\r\n        b = new bytes(32);\r\n        assembly { mstore(add(b, 32), x) }\r\n    }\r\n        \r\n}",
  "sourcePath": "C:\\Users\\Swathi\\Work\\git\\OwnershipTransfer\\contracts\\Order.sol",
  "compiler": {
    "name": "solc",
    "version": "0.4.24+commit.e67f0147.Emscripten.clang"
  },
  "schemaVersion": "2.0.1",
  "updatedAt": "2018-08-21T13:09:17.341Z"
}