{
  "contractName": "Order",
  "abi": [
    {
      "anonymous": false,
      "inputs": [
        {
          "indexed": false,
          "name": "time",
          "type": "uint256"
        },
        {
          "indexed": false,
          "name": "orderId",
          "type": "bytes32"
        },
        {
          "indexed": false,
          "name": "assetId",
          "type": "bytes32"
        },
        {
          "indexed": false,
          "name": "intent",
          "type": "string"
        },
        {
          "indexed": false,
          "name": "broker",
          "type": "address"
        },
        {
          "indexed": false,
          "name": "ownerSignature",
          "type": "bytes"
        },
        {
          "indexed": false,
          "name": "data",
          "type": "string"
        },
        {
          "indexed": false,
          "name": "depositoryAddress",
          "type": "address"
        }
      ],
      "name": "OrderCreated",
      "type": "event"
    },
    {
      "constant": false,
      "inputs": [
        {
          "name": "_assetId",
          "type": "bytes32"
        },
        {
          "name": "_intent",
          "type": "string"
        },
        {
          "name": "_broker",
          "type": "address"
        },
        {
          "name": "_ownerSignature",
          "type": "bytes"
        },
        {
          "name": "_data",
          "type": "string"
        },
        {
          "name": "_depositoryAddress",
          "type": "address"
        }
      ],
      "name": "createOrder",
      "outputs": [],
      "payable": false,
      "stateMutability": "nonpayable",
      "type": "function"
    },
    {
      "constant": true,
      "inputs": [
        {
          "name": "order_id",
          "type": "bytes32"
        }
      ],
      "name": "getOrderById",
      "outputs": [
        {
          "name": "orderId",
          "type": "bytes32"
        },
        {
          "name": "assetId",
          "type": "bytes32"
        },
        {
          "name": "owner",
          "type": "address"
        },
        {
          "name": "intent",
          "type": "string"
        },
        {
          "name": "broker",
          "type": "address"
        },
        {
          "name": "issuer",
          "type": "address"
        },
        {
          "name": "ownerSignature",
          "type": "bytes"
        },
        {
          "name": "data",
          "type": "string"
        }
      ],
      "payable": false,
      "stateMutability": "view",
      "type": "function"
    }
  ],
  "bytecode": "0x608060405234801561001057600080fd5b50610d91806100206000396000f30060806040526004361061004c576000357c0100000000000000000000000000000000000000000000000000000000900463ffffffff168063a639912914610051578063c837e0dc1461028a575b600080fd5b34801561005d57600080fd5b5061008060048036038101908080356000191690602001909291905050506103cd565b60405180896000191660001916815260200188600019166000191681526020018773ffffffffffffffffffffffffffffffffffffffff1673ffffffffffffffffffffffffffffffffffffffff168152602001806020018673ffffffffffffffffffffffffffffffffffffffff1673ffffffffffffffffffffffffffffffffffffffff1681526020018573ffffffffffffffffffffffffffffffffffffffff1673ffffffffffffffffffffffffffffffffffffffff1681526020018060200180602001848103845289818151815260200191508051906020019080838360005b8381101561017a57808201518184015260208101905061015f565b50505050905090810190601f1680156101a75780820380516001836020036101000a031916815260200191505b50848103835286818151815260200191508051906020019080838360005b838110156101e05780820151818401526020810190506101c5565b50505050905090810190601f16801561020d5780820380516001836020036101000a031916815260200191505b50848103825285818151815260200191508051906020019080838360005b8381101561024657808201518184015260208101905061022b565b50505050905090810190601f1680156102735780820380516001836020036101000a031916815260200191505b509b50505050505050505050505060405180910390f35b34801561029657600080fd5b506103cb6004803603810190808035600019169060200190929190803590602001908201803590602001908080601f0160208091040260200160405190810160405280939291908181526020018383808284378201915050505050509192919290803573ffffffffffffffffffffffffffffffffffffffff169060200190929190803590602001908201803590602001908080601f0160208091040260200160405190810160405280939291908181526020018383808284378201915050505050509192919290803590602001908201803590602001908080601f0160208091040260200160405190810160405280939291908181526020018383808284378201915050505050509192919290803573ffffffffffffffffffffffffffffffffffffffff16906020019092919050505061075c565b005b600080600060606000806060806103e2610cd7565b600260008b6000191660001916815260200190815260200160002061010060405190810160405290816000820154600019166000191681526020016001820154600019166000191681526020016002820160009054906101000a900473ffffffffffffffffffffffffffffffffffffffff1673ffffffffffffffffffffffffffffffffffffffff1673ffffffffffffffffffffffffffffffffffffffff168152602001600382018054600181600116156101000203166002900480601f01602080910402602001604051908101604052809291908181526020018280546001816001161561010002031660029004801561051d5780601f106104f25761010080835404028352916020019161051d565b820191906000526020600020905b81548152906001019060200180831161050057829003601f168201915b505050505081526020016004820160009054906101000a900473ffffffffffffffffffffffffffffffffffffffff1673ffffffffffffffffffffffffffffffffffffffff1673ffffffffffffffffffffffffffffffffffffffff1681526020016005820160009054906101000a900473ffffffffffffffffffffffffffffffffffffffff1673ffffffffffffffffffffffffffffffffffffffff1673ffffffffffffffffffffffffffffffffffffffff168152602001600682018054600181600116156101000203166002900480601f01602080910402602001604051908101604052809291908181526020018280546001816001161561010002031660029004801561066b5780601f106106405761010080835404028352916020019161066b565b820191906000526020600020905b81548152906001019060200180831161064e57829003601f168201915b50505050508152602001600782018054600181600116156101000203166002900480601f01602080910402602001604051908101604052809291908181526020018280546001816001161561010002031660029004801561070d5780601f106106e25761010080835404028352916020019161070d565b820191906000526020600020905b8154815290600101906020018083116106f057829003601f168201915b505050505081525050905080600001519850806020015197508060400151965080606001519550806080015194508060a0015193508060c0015192508060e00151915050919395975091939597565b6000610766610cd7565b826000806101000a81548173ffffffffffffffffffffffffffffffffffffffff021916908373ffffffffffffffffffffffffffffffffffffffff1602179055506000809054906101000a900473ffffffffffffffffffffffffffffffffffffffff16600160006101000a81548173ffffffffffffffffffffffffffffffffffffffff021916908373ffffffffffffffffffffffffffffffffffffffff1602179055506001600a60014303406001900481151561081e57fe5b060191508781602001906000191690816000191681525050600160009054906101000a900473ffffffffffffffffffffffffffffffffffffffff1673ffffffffffffffffffffffffffffffffffffffff166340cf3072896040518263ffffffff167c0100000000000000000000000000000000000000000000000000000000028152600401808260001916600019168152602001915050602060405180830381600087803b1580156108cf57600080fd5b505af11580156108e3573d6000803e3d6000fd5b505050506040513d60208110156108f957600080fd5b8101908080519060200190929190505050816040019073ffffffffffffffffffffffffffffffffffffffff16908173ffffffffffffffffffffffffffffffffffffffff168152505086816060018190525085816080019073ffffffffffffffffffffffffffffffffffffffff16908173ffffffffffffffffffffffffffffffffffffffff1681525050338160a0019073ffffffffffffffffffffffffffffffffffffffff16908173ffffffffffffffffffffffffffffffffffffffff1681525050848160c00181905250838160e001819052506109d582610c93565b6040518082805190602001908083835b602083101515610a0a57805182526020820191506020810190506020830392506109e5565b6001836020036101000a0380198251168184511680821785525050505050509050019150506040518091039020816000019060001916908160001916815250507f7c3ac478432c7c54f807a7755f3e9f2569d5402743311fbe3ab1150d21cc273c4282600001518360200151846060015185608001518660c001518760e001516000809054906101000a900473ffffffffffffffffffffffffffffffffffffffff166040518089815260200188600019166000191681526020018760001916600019168152602001806020018673ffffffffffffffffffffffffffffffffffffffff1673ffffffffffffffffffffffffffffffffffffffff16815260200180602001806020018573ffffffffffffffffffffffffffffffffffffffff1673ffffffffffffffffffffffffffffffffffffffff168152602001848103845289818151815260200191508051906020019080838360005b83811015610b7a578082015181840152602081019050610b5f565b50505050905090810190601f168015610ba75780820380516001836020036101000a031916815260200191505b50848103835287818151815260200191508051906020019080838360005b83811015610be0578082015181840152602081019050610bc5565b50505050905090810190601f168015610c0d5780820380516001836020036101000a031916815260200191505b50848103825286818151815260200191508051906020019080838360005b83811015610c46578082015181840152602081019050610c2b565b50505050905090810190601f168015610c735780820380516001836020036101000a031916815260200191505b509b50505050505050505050505060405180910390a15050505050505050565b606060206040519080825280601f01601f191660200182016040528015610cc95781602001602082028038833980820191505090505b509050816020820152919050565b610100604051908101604052806000801916815260200160008019168152602001600073ffffffffffffffffffffffffffffffffffffffff16815260200160608152602001600073ffffffffffffffffffffffffffffffffffffffff168152602001600073ffffffffffffffffffffffffffffffffffffffff168152602001606081526020016060815250905600a165627a7a72305820a19169496b51d68c61afe8f84c3e3d7669c4a96ef70281ed38d2adaa74b247ab0029",
  "source": "pragma solidity ^0.4.24;\r\n\r\nimport \"./Depository.sol\";\r\n\r\ncontract Order {\r\n    \r\n        address depositoryAddress;\r\n        Depository depositoryContract;\r\n        mapping (bytes32 => Claim) orderList;\r\n        \r\n        struct Claim {\r\n            bytes32 id;\r\n            bytes32 assetId;\r\n            address owner;\r\n            string intent;\r\n            address broker;\r\n            address issuer; // msg.sender\r\n            bytes ownerSignature; // this.address + topic + data\r\n            string data;\r\n        }\r\n        \r\n        event OrderCreated(uint256 time, bytes32 orderId, bytes32 assetId, string intent, address broker, bytes ownerSignature, string data, address depositoryAddress);\r\n        \r\n        function createOrder(bytes32 _assetId, string _intent, address _broker, bytes _ownerSignature, string _data, address _depositoryAddress) public {\r\n            depositoryAddress = _depositoryAddress;\r\n            depositoryContract = Depository(depositoryAddress);\r\n            uint random_number = uint(blockhash(block.number-1))%10 + 1; \r\n            \r\n            Claim memory ownerClaim;\r\n            ownerClaim.assetId = _assetId;\r\n            ownerClaim.owner = depositoryContract.getOwnerById(_assetId);\r\n            ownerClaim.intent = _intent;\r\n            ownerClaim.broker = _broker;\r\n            ownerClaim.issuer = msg.sender;\r\n            ownerClaim.ownerSignature = _ownerSignature;\r\n            ownerClaim.data = _data;\r\n            ownerClaim.id = keccak256(uintToByte32(random_number));\r\n            emit OrderCreated(now, ownerClaim.id, ownerClaim.assetId, ownerClaim.intent, ownerClaim.broker, ownerClaim.ownerSignature, ownerClaim.data, depositoryAddress);\r\n        }\r\n        \r\n        function getOrderById(bytes32 order_id) public view returns(bytes32 orderId, bytes32 assetId, address owner, string intent, address broker, address issuer, bytes ownerSignature, string data) {\r\n            Claim memory claim;\r\n            claim = orderList[order_id];\r\n            orderId = claim.id;\r\n            assetId = claim.assetId;\r\n            owner = claim.owner;\r\n            intent = claim.intent;\r\n            broker = claim.broker;\r\n            issuer = claim.issuer;\r\n            ownerSignature = claim.ownerSignature;\r\n            data = claim.data;\r\n        }\r\n        \r\n        \r\n        \r\n        function uintToByte32(uint256 x) internal pure returns (bytes b) {\r\n        b = new bytes(32);\r\n        assembly { mstore(add(b, 32), x) }\r\n    }\r\n        \r\n}",
  "sourcePath": "C:\\Users\\Swathi\\Work\\quintor-settlement-app-new\\contracts\\Order.sol",
  "compiler": {
    "name": "solc",
    "version": "0.4.24+commit.e67f0147.Emscripten.clang"
  },
  "schemaVersion": "2.0.1",
  "updatedAt": "2018-08-12T21:44:50.192Z"
}